:020000040800F2
:1000000000000220016A0108491100084D11000892
:100010005111000855110008591100080000000096
:100020000000000000000000000000005D1100085A
:100030006111000800000000651100086911000846
:10004000496A0108496A0108496A0108496A0108C0
:10005000496A0108496A0108496A0108496A0108B0
:10006000496A0108496A0108496A0108496A0108A0
:10007000496A0108496A0108496A0108496A010890
:10008000496A0108496A0108496A0108496A010880
:10009000496A0108496A0108496A0108496A010870
:1000A000496A0108496A0108496A01089D11000866
:1000B000496A0108496A0108496A0108496A010850
:1000C000496A0108496A0108496A0108496A010840
:1000D000496A0108496A0108496A0108496A010830
:1000E000496A0108496A0108496A0108496A010820
:1000F000496A0108496A0108496A0108496A010810
:10010000496A0108496A0108496A0108496A0108FF
:10011000496A0108496A01082D000108496A010875
:10012000496A0108496A0108496A0108496A0108DF
:10013000496A0108496A0108496A0108496A0108CF
:10014000496A0108496A0108496A0108496A0108BF
:10015000496A0108496A0108496A0108496A0108AF
:10016000496A0108496A0108496A0108496A01089F
:10017000496A0108496A0108496A0108496A01088F
:08018000496A0108496A0108FF
:1001A00010B5054C237833B9044B13B10448AFF3B1
:1001B00000800123237010BDF8080020000000001B
:1001C00080C80108084B10B51BB108480849AFF3B7
:1001D00000800848036803B910BD074B002BFBD013
:1001E000BDE81040184700BF0000000080C80108AB
:1001F000FC080020F408002000000000154B002B34
:1002000008BF134B9D46A3F5803A00218B460F464D
:100210001348144A121A16F033FF0F4B002B00D06C
:1002200098470E4B002B00D0984700200021040077
:100230000D000D48002802D00C4818F0A1FB16F064
:1002400059FC2000290016F0DBF916F043FC00BF32
:100250000000080000000000000000000000000096
:10026000F8080020185600208189010861990108CA
:1002700010B50FF0BDFC00F015F800F06BFC00F0BD
:10028000E7FD064C207001F00DFB05492070402071
:1002900000F0D6FE00F0DAFC207010BDE422002051
:1002A000001002402DE9F0419AB000238E490193DD
:1002B0000E930F931493109311931293139315931A
:1002C000169317931893199309930A930B930C930E
:1002D0000D93086C854A40F080500864096C01F069
:1002E0008051019101990293136843F440431360D4
:1002F000136803F440430293022404234FF4800163
:100300005A2201264FF480350EA8029F0E960F95B3
:100310001494159116931993189417920AF048F8AB
:100320000346002800F0CC804FF0FF0800246E4DFB
:1003300003940E940F941094119412942B6B6C48A8
:1003400043F004032B632B6B03F004030393039B21
:1003500004942B6B43F080032B632B6B03F080031F
:100360000493049B05942B6B43F001032B632B6BCD
:1003700003F001030593059B06942B6B43F00203E6
:100380002B632B6B03F00203069322462021069B6E
:100390000BF0D8FA224657484FF400710BF0D2FA0E
:1003A0004FF40052544B53480E920EA901260F935E
:1003B00010940BF045F920230EA94D480E9310948C
:1003C00011940F960BF03CF94EF202030EA94B4824
:1003D0000E934FF420770F94109611940BF030F990
:1003E0000EA944480E970F96109411940BF028F91B
:1003F00040230EA941480E930F96109411940BF0D0
:100400001FF90EA93A480E970F96109411940BF00D
:1004100017F94FF480630EA936480E930F96109487
:1004200011960BF00DF907942B6C344843F40043FC
:100430002B642B6C03F400430793079B08942B6BEE
:1004400043F002032B632B6B03F002030893089B1A
:1004500009942B6B43F004032B632B6B109403F074
:1004600004030225032709934FF4805207230EA9A2
:10047000DDF824E00E9212930F9511970BF0E0F83F
:100480004FF4C05206230EA91A480E9212930F95EC
:10049000109411970BF0D4F80EA916480E960F94ED
:1004A000109511970BF0CCF80EA912480F940E95E9
:1004B000109511970BF0C4F840461AB0BDE8F081D2
:1004C0004FF4A05221460F2509A80A940B930D93CF
:1004D00009950C920AF0E6F9002814BF4FF0FF08C6
:1004E0004FF0000822E700BF0038024000700040D3
:1004F00000000240000802400000211000040240F9
:1005000008B59F48802100220BF01CFA9D4840212D
:1005100001220BF017FA9C48802101220BF012FAFD
:1005200097484FF4007101220BF00CFA9548022114
:100530000BF002FA38B9934802210BF0FDF90028BC
:10054000F9D0312008BD8F484FF400410BF0F4F989
:1005500040B98C484FF400410BF0EEF90028F8D078
:10056000322008BD87484FF480410BF0E5F940B9CF
:1005700084484FF480410BF0DFF90028F8D0332095
:1005800008BD80484FF400510BF0D6F940B97D48C2
:100590004FF400510BF0D0F90028F8D0412008BDED
:1005A0007748802101220BF0CDF9764840210022C6
:1005B0000BF0C8F97448802101220BF0C3F9704890
:1005C0004FF4007101220BF0BDF96E4802210BF0CF
:1005D000B3F938B96B4802210BF0AEF90028F9D015
:1005E000342008BD67484FF400410BF0A5F940B92D
:1005F00064484FF400410BF09FF90028F8D03520F3
:1006000008BD60484FF480410BF096F940B95D4851
:100610004FF480410BF090F90028F8D0362008BD47
:1006200058484FF400510BF087F940B955484FF442
:1006300000510BF081F90028F8D0422008BD504845
:10064000802101220BF07EF94E48402101220BF05F
:1006500079F94D48802100220BF074F948484FF495
:10066000007101220BF06EF9464802210BF064F98B
:1006700038B9444802210BF05FF90028F9D037203F
:1006800008BD40484FF400410BF056F940B93D48D1
:100690004FF400410BF050F90028F8D0382008BD85
:1006A00038484FF480410BF047F940B935484FF4D2
:1006B00080410BF041F90028F8D0392008BD3148BD
:1006C0004FF400510BF038F940B92E484FF4005167
:1006D0000BF032F90028F8D0432008BD28488021CB
:1006E00001220BF02FF92748402101220BF02AF9B3
:1006F0002548802101220BF025F921484FF4007193
:1007000000220BF01FF91F4802210BF015F938B930
:100710001C4802210BF010F90028F9D02A2008BD4E
:1007200018484FF400410BF007F940B915484FF451
:1007300000410BF001F90028F8D0302008BD114825
:100740004FF480410BF0F8F840B90E484FF4804167
:100750000BF0F2F80028F8D0232008BD09484FF428
:1007600000510BF0E9F840B906484FF400510BF086
:10077000E3F80028F8D0442008BD012008BD00BFE0
:1007800000000240000402400008024000230B6009
:10079000037043708370C3700371704710B50446D3
:1007A0000020014600F0B6F82046BDE8104000F0F9
:1007B0000BB900BFF8B5062016F0C4F906460024B0
:1007C00020461E213460347100F0A4F82546771EBF
:1007D000FFF796FE01280446FAD06E2000F0AAF832
:1007E000013507F8014F00F033F9052DF0D1002352
:1007F00073713046F8BD00BF002010B5014600F00F
:1008000089F8254800F0E0F80A21002000F082F87D
:10081000224800F0D9F800F01BF9FFF7CBFF204980
:1008200014F052FDA0B1002000F042F81E2100207B
:1008300000F070F81B4800F0C7F800F009F900203C
:1008400000F036F840F25230BDE810400FF01ABA0E
:10085000044600F02DF81421204600F05BF8124801
:1008600000F0B2F800F0F4F8FFF7A4FF01460C48DE
:1008700016F0B2FC2821204600F04CF80B4800F09E
:10088000A3F800F0E5F8204600F012F840F25230EC
:10089000BDE810400FF0F6B90CC5010818C50108F5
:1008A0000400002044C5010828C5010838C5010816
:1008B00001280CBFFF21002102484FF4806216F08E
:1008C000DFBB00BF140900207F2801D9FF2070473B
:1008D0003F29FBD830B4CB0872B900EBC3130C4DE1
:1008E00001F00701E85C012404FA01F120EA0101AA
:1008F000E954104630BC704700EBC310044A01F0C5
:100900000701145C01238B40234313540020F1E7BB
:10091000140900207E28034601D9FF2070473E2994
:10092000FBD8034A002082F8003482F80114704793
:10093000140900202DE9F04FDFF8888098F8009422
:10094000B9F1780F83B003DDFF2003B0BDE8F08F6D
:1009500098F80154352DF7DCA0F12003184F03EB74
:100960008303ADB207EB83071FFA89F305F10A0B86
:10097000019337F8026F019C4FF0000A06FA0AF261
:1009800012F4004E2046294608BF20464FF00102CF
:1009900004BF294672460AF1010AFFF795FF0134A8
:1009A000BAF1070FA4B2E9D10135ADB25D45E0D18E
:1009B00009F10709002088F8009403B0BDE8F08F22
:1009C00096B801081409002010B50446007828B133
:1009D000FFF7B0FF14F8010F0028F9D1002010BD77
:1009E00030B5C3B08DF8081043B1002102AC6518D2
:1009F0004C1C515C6970E1B29942F7D30A2401336F
:100A000001469BB202AA009404480FF001FE0028A0
:100A100014BFFF20002043B030BD00BF483300208A
:100A200000B585B00A238DF80C108DF80D20014615
:100A3000009303AA022305480FF0EAFD002814BF23
:100A4000FF20002005B05DF804FB00BF4833002004
:100A500070B50F4DB02405F5806622460021782040
:100A6000FFF7DEFF00210A467820FFF7D9FF0021BB
:100A700010227820FFF7D4FF80232A4678201D44D7
:100A80004021FFF7ADFF0134B542E4B2E5D170BDBE
:100A9000140900202DE9F04389B00024284D294E87
:100AA000019403940494069407940594264B2B60B8
:100AB000336B264A6A6043F002033363336BDFF81B
:100AC0009090AC6003F002030193484603A94FF4F1
:100AD00080624FF01208032704234FF4804EC5F8BC
:100AE00010E00392DDF804E00793EC606C61AC6108
:100AF000EC612C62CDF8108006970AF0A1FD4FF44E
:100B00000072484603A9092303920793CDF8108089
:100B1000059406970AF094FD0294336C43F4800325
:100B20003364336C03F4800302932846029B0FF076
:100B300095FCA04214BFFF20204609B0BDE8F08319
:100B4000483300200038024000580040801A060058
:100B50000004024038B5FFF79DFF3A487821012292
:100B600044F6206311F0D0F8044608B1FF2038BDE8
:100B70002146A8227820FFF753FF21463F22782004
:100B8000FFF74EFF2146D3227820FFF749FF214689
:100B900022467820FFF744FF214640227820FFF7C5
:100BA0003FFF2146A1227820FFF73AFF2146C822C5
:100BB0007820FFF735FF2146DA227820FFF730FF53
:100BC000214612227820FFF72BFF21468122782030
:100BD000FFF726FF21467F227820FFF721FF2146DD
:100BE000A4227820FFF71CFF2146A6227820FFF7D9
:100BF00017FF2146D5227820FFF712FF21468022D9
:100C00007820FFF70DFF21468D227820FFF708FF9F
:100C10000D4D214614227820FFF702FF2146AF2216
:100C20007820FFF7FDFE21464FF48062284616F03B
:100C300027FAFFF70DFF85F8004485F801442046A8
:100C400038BD00BF4833002014090020F0B593B030
:100C500000243D4E009402940394049405940B9454
:100C60000C940D940E940F9410941194336B374D93
:100C7000374843F001033363336B089403F00103F7
:100C8000009303220223012706A906920793DDF8A9
:100C900000E009940A970AF0D3FC01944FF08043D6
:100CA0002B60336CAC603B433364336C2C613B4052
:100CB00001930E224EF660232846AC6101996A60CA
:100CC000EB6008F05DFA10B1FF2013B0F0BD2846CC
:100CD00008F01EFA0028F7D112A94FF4805341F80A
:100CE000403D284607F010FF03460028ECD102469D
:100CF00060240BA928460C930D930F930B9408F0D6
:100D000055FB0028E0D10BA92846042208F04EFB31
:100D100004460028D8D12846214606F02DFE284654
:100D2000042106F029FE28680A4A0B4B0B4D0C499A
:100D3000147240F21A4646631560204651601D60E9
:100D400059601F72C1E700BF00380240A83300207D
:100D5000000002409C330020E83300200040834420
:100D600000A0F0450B7A33B1012B00D07047044B43
:100D70001B6898637047024B1B685863704700BF3D
:100D8000A8330020037A13B1012B04D07047044B21
:100D90001B68586B7047024B1B68986B704700BF0D
:100DA000A83300200B7A43B1012B00D07047064BCB
:100DB0001A68936B184490637047034B1A68536B1F
:100DC00018445063704700BFA8330020B42801D9ED
:100DD000FF20704707EE900A9FED1B7A087AF8EE25
:100DE000E77AC7EE877AC8B1012801D000207047A2
:100DF000B7EE007A91ED006AD1ED016A134B37EE40
:100E0000677A67EEA67A27EE067A1B6877EE277A6E
:100E10000020FCEEE77AC3ED0E7A7047B7EE007A59
:100E200091ED006AD1ED016A084B37EE677A67EE03
:100E3000A67A27EE067A1B6877EE277AFCEEE77A29
:100E4000C3ED0D7A704700BF00003443A833002083
:100E5000F0B591B00024344D344B019403940494C4
:100E6000059406940794089409940A940B940C949E
:100E70000D940E940F942E4A2A605A6CAC6042F086
:100E800001025A645A6C2C6102F001020192019A2B
:100E900002941A6B6C6142F001021A631B6B2548C5
:100EA000AC6103F001034FF0590E02934FF48072CE
:100EB00002234FF6FF770BA90126C5F804E0EF6087
:100EC000029F0B920C930F960AF0BAFB2146224622
:100ED0001B200EF0F5FC1B200EF028FD284608F024
:100EE00017F910B1FF2011B0F0BD10A94FF48053D5
:100EF00041F8343D284607F007FE03460028F1D1AB
:100F000002460F24284607A90A94079308960993D6
:100F100008F0EAFA04460028E4D12846214606F003
:100F200089FF2046DFE700BF34340020003802404C
:100F30000000014000000240054B1B6800225A627D
:100F40005A6A824203D25A6A5A6A8242FBD3704773
:100F50003434002010B50E4C0E4801224FF40071BD
:100F60000AF0F0FC236800225A625A6A092A03D860
:100F70005A6A5A6A092AFBD9002206484FF40071BE
:100F80000AF0E0FC2268D36843F00203D36010BD8E
:100F9000343400200008024070B5057F012D00D0D8
:100FA00070BD244E3178044669B30129F8D100217F
:100FB00007F0A2FE72682368B06000219042596277
:100FC0002FD831D3F0689FED1C7A1A6A1B4907EEBF
:100FD000900AF8EE677A22F00A0267EE877AB6EE98
:100FE000007A1A6267EE877A1A6A09681A62FCEE5A
:100FF000E77ACA6817EE903A22F002020020CA602F
:1010000033743070CCE707F077FE3570236870607A
:101010001A6A22F00A021A621A6A42F002021A627C
:1010200070BD801AF060CEE7C2F57F42FF321044F7
:10103000F060C8E7180D002096430B3D34340020C3
:1010400000B587B000230D4A0093019304930293E7
:1010500003930593136B43F010031363136B019019
:1010600003F0100300930846032301A9009A049398
:101070000AF0E6FA07B05DF804FB00BF0038024052
:1010800008B583B2084619460AF056FCB0FA80F05B
:10109000400908BD034AD2F8883043F47003C2F80F
:1010A0008830704700ED00E01848836803F00C03B7
:1010B000042B29D0082B0AD0154B144A15489268E6
:1010C0001549C2F30312825CD3400B60704743683A
:1010D000416813F4800F436818BF104801F03F02C5
:1010E0000CBF0B49B0FBF2F1C3F3881308BFB1FB8F
:1010F000F2F101FB03F2054B5B68C3F301430133DB
:101100005B00B2FBF3F3D8E7044BD6E700380240AC
:101110000024F40008C001080C00002040787D0184
:10112000074B1A781AB11A78013AD2B21A70054AE6
:1011300013781BB11378013BDBB21370704700BF0B
:10114000AD550020AC550020FEE700BFFEE700BF14
:10115000FEE700BFFEE700BFFEE700BF704700BF2D
:10116000704700BF704700BF08B50B4A13780133C2
:10117000DBB2092B06D813700EF054FDBDE8084011
:101180000EF0F6BC00231370FFF7CAFF0EF04AFD05
:10119000BDE808400EF0ECBC2C0D0020014807F023
:1011A0007DBE00BF34340020F0B589B000241A4D54
:1011B00001942B6B43F001032B632B6B059403F01D
:1011C00001030421019307460223072203911348D8
:1011D000019E049303A9069307920AF031FA029440
:1011E0002A6C0F4B0F4E5F6042F400322A642A6C67
:1011F0009C6002F40032029208214FF40042DC604D
:101200001C619C6118465961DA61029C1E600BF0FA
:10121000C9FB09B0F0BD00BF003802400000024029
:10122000743400200044004000B583B002A90122BC
:1012300001F8010D42F2107302480BF0B3FC03B049
:101240005DF804FB7434002070B5441E82B000F2D7
:10125000FF3601E0B4421BD014F8015F0D480DF1D8
:101260000601012242F2107395B18DF806500BF081
:1012700099FC23780A2BEDD102A90D2301F8013D39
:101280000448012242F210730BF08CFCB442E3D10B
:1012900002B070BD743400200FB470B58EB012ABC4
:1012A00053F8045B03932B7843B3002214462E4675
:1012B000252B28D12A445378CBB1623B162B00F260
:1012C000A180DFE803F07F916F9F4B9F9F9F9F9FBF
:1012D0009F9F9F9F9F9F9F0C9F9F9F9F3800039B57
:1012E0001A1D18680392FFF7AFFF0134A4B201344E
:1012F000A4B222462B5D2E19002BD9D10EB0BDE829
:10130000704004B070478DF80630624842F21073A6
:101310000DF1060101220BF045FC33780A2BE6D1D2
:101320000EA90D2301F8313D012242F210735948F4
:101330000BF038FCDBE79378622B00F08F80682B92
:1013400076D0772B039B00F09D801A1D013C1B6813
:101350000392A4B202934FF4006042E0039B073370
:1013600023F00703D3E900010833420F21F0784648
:101370000028039342EAC60371F10002B8BF43F0AC
:101380000043002001F08041029350EA01033CD168
:101390004FF4807004AA02A900F0BEF804A8FFF779
:1013A00053FFA2E79378622B51D0682B39D0772B6B
:1013B000039B61D01A1D013C1B680392A4B20293E7
:1013C00020200EE09378622B3AD0682B22D0772B26
:1013D000039B4BD01A1D013C1B680392A4B20293DD
:1013E00004200134A4B2D5E7039B2A481A680EA949
:1013F0001E1D01F8332D42F21073012203960BF0EB
:10140000D1FB72E7002302936FE7029B43F0804316
:101410000293BDE7039B1A1D1B68039202930220EF
:10142000DFE7039B1A1D1B68039202931020D8E785
:10143000039B1A1D1B68039202934FF48060D0E750
:10144000039B1A1D1B68039202930120C9E7039BAB
:101450001A1D1B68039202930820C2E7039B1A1D02
:101460001B68039202934FF40070BAE71A1D1B68C1
:10147000039202930420B4E71A1D1B68039202939F
:101480002020AEE71A1D1B68039202934FF4006000
:10149000A7E700BF74340020F0B40D4A0D4F00F1EF
:1014A0000A053026914205F8016D08D3312400E089
:1014B0001C46891A631C9142DBB2F9D22C70A7FB3F
:1014C000023285424FEAD202ECD1F0BC704700BF35
:1014D00000CA9A3BCDCCCCCC70B40B880025093027
:1014E0002C46ADB90678302E0FD0D6540B88013378
:1014F0009BB20B8001250134E4B20A2C00F1FF30CD
:10150000EFD10021D15470BC7047092CF3D1ECE726
:101510000578D554EAE700BF2DE9F04784B00023F1
:10152000102815461370ADF8023000F0548124D90C
:10153000B0F5007F4FD040F28280B0F5806F64D06C
:10154000B0F5006F16D11A4601240B6800E004467E
:101550001B0F092B03F130008ABF3733A854AB545B
:10156000601C0B6880B21B0109280B602246EED17B
:1015700000232B7204B0BDE8F087022800F014812C
:1015800017D9042840F024810B6805F1200030248D
:101590003126002BB4BF167014700B6801325B004B
:1015A00082420B60F5D1002385F8203004B0BDE8FD
:1015B000F0870128DED10B6805F1080030263124C0
:1015C0001F064CBF147016700B6801325B0082421C
:1015D0000B60F5D1CCE71A460B680124C3F3031363
:1015E000092BD8B200F1300386BF3730A854AB5472
:1015F000601C0B6880B21B0103280B6040F0D18097
:101600000023AB7004B0BDE8F0871A460B6814469F
:10161000C3F30333092BD8B200F130038ABF37304C
:101620002B55285501320B6892B21B01042A14462F
:101630000B60EDD100232B7104B0BDE8F0872028AA
:1016400000F0C980B0F5807F94D191ED007AB5EEBD
:10165000C07AF1EE10FA00F1FA80F7EE007AB4EEFB
:10166000E77AF1EE10FA00F1DC8040F3018100230B
:10167000B2EE046A67EE867A0133B4EEE77AF1EEF1
:1016800010FA9BB2F2EE046AF4DCC7EEA67A5C1E96
:10169000A4B24FF020080DF10E077949DFF8ECC134
:1016A000384601AE4FF0300EC7EE277A9FED757ABF
:1016B000FCEEE76A16EE902AF8EE666A77EEE67AB6
:1016C00067EE877AFCEEE77A17EE90AA914200F86F
:1016D00001ED0BD84FF0310900E09946521A09F19B
:1016E00001038A42DBB2F8D280F80090ACFB0131F2
:1016F000B0424FEAD101E9D10DF102094946304625
:101700002A46FFF7E9FE5E4ADFF880E139463020DD
:10171000524501F8010D0CD84FF0310C00E09C4609
:10172000C2EB0A0A0CF101039245DBB2F7D281F851
:1017300000C0AEFB02328E424FEAD202E8D12E2325
:1017400049462A4630468DF80730FFF7C5FEBDF8FA
:101750000220531C65219BB2B8F12D0FA954ADF89E
:10176000023058D0464ADFF824E13020A24207F880
:10177000010D08D8312100E01946A41A4B1C9442EF
:10178000DBB2F9D23970AEFB0232BE424FEAD2026E
:10179000ECD1304649462A46FFF79EFE04B0BDE82C
:1017A000F0872246044619E70B6805F11000302641
:1017B00031241B044CBF147016700B6801325B009F
:1017C00082420B60F5D100232B7404B0BDE8F08792
:1017D00008287FF4CFAE0A68002A40DB2849DFF8EA
:1017E000ACE001AE0DF10E043027914204F8017D0A
:1017F00008D8312000E01846521A431C8A42DBB256
:10180000F9D22070AEFB0131B4424FEAD101ECD1E4
:101810000DF10209BDE7023205F80380ADF80220A0
:10182000A0E7DFED197AB4EEE77AF1EE10FA24D5ED
:10183000F0EE676A012467EEA67A0134B4EEE77A27
:10184000F1EE10FAA4B2F6D44FF02D0823E72D22C2
:101850000123B1EE477A2A70ADF80230FDE62D2360
:101860002B700A68012352420A60ADF80230B5E7D6
:101870004FF6FF74DFED047A0BE70124E4E700BFC5
:1018800000CA9A3B00007A44CDCCCC3DCDCCCCCC28
:1018900000F072B900F018BA00F020BA00F068BA8F
:1018A00000F0D4BA38B51149114800F0CBFB114A09
:1018B000114B1070114A1A600A2100224FF48275F0
:1018C0004FF4007418465D609C61D9629A60DA60DA
:1018D0001A615A61DA611A625A629A6212F0F0FA77
:1018E000002814BFFF20002038BD00BFB8340020FE
:1018F0001000002014350020BC340020003C0040C3
:101900000020704700B583B08DF80700074813F03A
:10191000B9FC0128FAD102460DF107014FF47A73A0
:10192000024812F03FFB03B05DF804FBBC3400201A
:1019300008B505484FF4806100220AF003F8012041
:10194000BDE808400EF09EB90008024008B5054801
:101950004FF48061012209F0F5FF0120BDE8084045
:101960000EF090B90008024000B585B0FF220023B8
:101970008DF80E208DF80F300A4813F083FC0128F3
:10198000FAD14FF47A72034600920DF10E010DF177
:101990000F02044812F0CCFC9DF80F0005B05DF872
:1019A00004FB00BFBC34002030B583B0FFF7CEFF8E
:1019B0000A24FF20FFF7A6FF013CFAD1FFF7B8FF8A
:1019C000402095238DF801408DF802408DF80340AA
:1019D0008DF804408DF800008DF805306C460DF14F
:1019E000050501E014F8010FFFF78CFFAC42F9D1B7
:1019F0004FF4005401E0013C03D0FFF7B5FF01288C
:101A0000F9D1FFF7A3FFFF20FFF77CFF024B012274
:101A10001A7003B030BD00BF2D0D002010B5064C6C
:101A200032232370FFF7A0FF01E023781BB1FFF7FB
:101A30009BFFFF28F9D110BDAC55002038B50546F5
:101A40000C46FFF7EBFFFF2801D0002038BD2046F1
:101A5000FFF758FFFD2C28D0AC1C05F2022514F826
:101A6000020CFFF74FFF023414F8030CFFF74AFF94
:101A7000AC42F4D1FFF778FF4124FFF775FF02E095
:101A800013F0FF0407D0FFF76FFF00F01F05052DCF
:101A900004F1FF33F4D1FFF767FF0028FBD0A5F175
:101AA0000500B0FA80F0400938BD0025F7E700BF17
:101AB00038B505460C46FFF7B1FFFF2801D0FF20DF
:101AC00038BD2846FFF71EFF200EFFF71BFFC4F3AB
:101AD0000740FFF717FFC4F30720FFF713FFE0B23B
:101AE000FFF710FF402D16D0482D0FD00020FFF734
:101AF00009FF4C2D13D00A24FFF736FF020604F12C
:101B0000FF3307D513F0FF04F6D138BD8720FFF768
:101B1000F9FEF0E738BD9520FFF7F4FEEBE7FFF79D
:101B200023FFE8E770B5134E0A2304460D463370D1
:101B300003E0337803F0FF00C3B1FFF715FFFF2880
:101B4000F7D0FE2813D10234FFF70EFF04F8020C81
:101B5000FFF70AFF023D04F8010C04F10204F3D17F
:101B6000FFF702FFFFF700FF012070BD70BD0020EE
:101B700070BD00BFAD55002018BBF0B54F4C2378A9
:101B800003F0020383B003F0FF051BB12078C0B25D
:101B900003B0F0BDFFF708FFFFF7CAFE402029465B
:101BA000FFF786FF012806460DD0454D00266E70D2
:101BB000FFF7CCFEFFF7D8FE20782E70C0B203B03E
:101BC000F0BD012070473F4F642348204FF4D5718A
:101BD0003B70FFF76DFF012842D101AD02AEFFF768
:101BE000C3FE05F8010BB542F9D19DF80630012B73
:101BF000DBD19DF80730AA2BD7D101E03B7863B148
:101C000077200021FFF754FF0128F7D869204FF013
:101C10008041FFF74DFF0028F0D13B78002BC4D066
:101C20007A200021FFF744FF0028BED10546FFF7C8
:101C30009BFE01AB58550135042DF8D19DF80430B9
:101C400013F0400F14BF062602261D4B5E70FFF7EF
:101C50007DFEFFF789FE237803F0FE03237095E7EE
:101C600077202946FFF724FF012805D81DE0FFF75C
:101C70001FFF78B13B786BB1022E4FF041004FF05F
:101C80000001F4D17720FFF713FF0128F2D8692073
:101C90000021ECE73B78002B87D050204FF40071F7
:101CA000FFF706FF002880D1CFE729466920FFF71C
:101CB000FFFE012894BF02260126DDE72800002050
:101CC0002D0D0020AD55002018B9034B1878C0B277
:101CD00070470120704700BF2800002030B583B056
:101CE00018B10424204603B030BD1C46002BF8D0A8
:101CF0001D4B1B78D80701D50324F3E71B4B5B78FA
:101D00005B0758BF52020D460192FFF711FE019A80
:101D1000012C11461AD05220FFF7CAFE38B1012417
:101D2000FFF714FEFFF720FEDCE7013C09D0284650
:101D30004FF40071FFF7F6FE05F500750028F4D1A9
:101D4000012400214C20FFF7B3FEE9E75120FFF703
:101D5000AFFE0028E4D128464FF40071FFF7E2FE01
:101D6000B0FA80F46409DBE7280000202D0D002084
:101D700030B583B018B10424204603B030BD002B29
:101D8000F9D00C462F490878C00701D50324F3E7A2
:101D900009784D0701D50224EEE72B4D69784807F5
:101DA00058BF52028DE80C00FFF7C2FD019B009A5C
:101DB000012B35D06978890724D411465920009326
:101DC000FFF776FE009B38B10124FFF7BFFDFFF758
:101DD000CBFDD1E7013B09D02046FC210093FFF762
:101DE0002DFE04F50074009B0028F3D10020FD2196
:101DF0000093FFF723FE009B0028E5D01C1C18BFB2
:101E00000124E2E70021772001920093FFF750FEC2
:101E1000009B57201946FFF74BFE019A009BCCE729
:101E2000114658200093FFF743FE009B08B11C4663
:101E3000CBE72046FE21FFF701FEB0FA80F46409EB
:101E4000C3E700BF280000202D0D0020F0B5044698
:101E500087B010B1042007B0F0BD052906D0554B5E
:101E60001B78DB070DD5032007B0F0BD1378012BDD
:101E700000F0908016D3022BECD14F4B1B7853709F
:101E8000E9E78DE80600FFF753FD9DE806000D2900
:101E90001BD8DFE801F0783F3A1A1A1A1A1A1A1AF0
:101EA0001A2A1C0A444B1C70D5E77A2000210092A4
:101EB000FFF7FEFD009A40B9141D0092FFF754FD94
:101EC000009A02F8010BA242F7D1042407E04A204D
:101ED00000210092FFF7ECFD009A70B10124FFF79A
:101EE00035FDFFF741FD2046B5E74920002100926E
:101EF000FFF7DEFD009A0028F0D110461021FFF711
:101F000011FEB0FA80F46409E9E74FF4007313801E
:101F10000024E4E7492000210092FFF7C9FD009A60
:101F200004460028DAD102A810210092FFF7FAFD3A
:101F3000009A0028D2D09DF808309B09012B2DD0A3
:101F40009DF80D109DF812709DF80F309DF81150FE
:101F50009DF810609DF80E0001F00F0101EBD71104
:101F60009B00023105F0030503EB961301EB4501DD
:101F7000013300F00300C9B203EB802309399BB29F
:101F80008B401360ABE7FFF749FDB0F1FF0418BFCA
:101F90000124A4E7FFF708FD20465CE79DF8113017
:101FA0009DF81010013303EB01239BB29B021360D9
:101FB00095E700BF280000202D0D002010B4037805
:101FC0000A49303BDBB201EB8304626852B14A7AC2
:101FD0000B44013A0020D2B218724A7260605DF878
:101FE000044B704701205DF8044B7047300D002012
:101FF0002DE9F041124B5C7A04F0FF05ECB95E7AF2
:1020000093F809E05F7A5C7A9D55E4B21F44661C40
:1020100003EB8E0EF6B23A725E7230344FF03A082D
:102020004FF02F0CCEF8040028460C70CD7081F8CC
:10203000018081F802C0BDE8F0810120BDE8F08197
:10204000300D0020F0B5114B5A7A02F0FF040AB1AE
:102050000120F0BD5D7A5F7A5E7A5A7A5C55D2B221
:102060001E44551C03EB8707EDB234725D723032AB
:102070004FF03A0C4FF02F0E786020460A70CC706B
:1020800081F801C081F802E0F0BD00BF300D0020F2
:10209000024B5B7A03B191E701207047300D0020BD
:1020A000024B5B7A0BB90120704787E7300D0020A7
:1020B000014B587A704700BF300D002030B4C4790E
:1020C0000025230E220284791D4314432B0243EA88
:1020D00014632202002544791D4314432B0243EA72
:1020E00014632202002504791D4314432B0243EAA2
:1020F000146322020025C4781D4314432B0243EAD3
:1021000014632202002584781D4314432B0243EA02
:10211000146322020025447800782B4322431D02D9
:1021200045EA1265140200212043294330BC704760
:102130001A4B53F8042C70B4002634464AB1056893
:10214000AA4214D0103344B953F8042C0124002AB5
:10215000F5D101261033002CF6D02EB902290CBF80
:102160000020122070BC7047002070BC70471D68B2
:1021700082689542E6D15D68026B9542E2D109B171
:102180001020EFE7064B03EB0414A389B3F5807F1F
:102190000CBF1020002070BC704700BF400D002015
:1021A0003C0D0020254BF0B4056853F8044CA542C3
:1021B00006464FF0000209D0012A03F1100317D0A0
:1021C00053F8044CA5424FF00102F5D11C68B068E9
:1021D0008442F1D15C68306B8442EDD1184B14011C
:1021E00011B31919898941B9501C4FF4807217E055
:1021F000134B1C68F4B1186910B10020F0BC704793
:10220000022014011A190029B168366B1D514FF0D4
:10221000000551609660958114BF4FF480720122D1
:102220002344F0BC9A8170471919501C8A890132E5
:1022300092B2F5E710462246E3E700BF400D0020CA
:102240003C0D002030B4054600206C780134640158
:102250000346022B08BF042310F00102E95C18BFFB
:102260004FF4004201EB5000013302449C4290B213
:10227000EFD830BC704700BF0168C9B110B40C780A
:102280001F2C09D93A2C0ED00A4601E03A2B07D070
:1022900012F8013F1F2BF9D800205DF8044B70475E
:1022A0004B1C9A4207D04FF0FF305DF8044B70474B
:1022B0004FF0FF307047302CF5D102310160002023
:1022C000EBE700BF10B5044682B018B103680BB14C
:1022D0001A7822B9092000230B6002B010BD808853
:1022E000DA889042F6D15878019104F09BFE10F004
:1022F00001000199EED12368EEE700BF38B5851CD7
:102300000088044600B3002404F0F6FE224606E0EE
:1023100004F0F2FE14F0010218BF4FF4004263080B
:1023200053FA80F313449BB213F001024FEA1020DA
:1023300000EB530318BF4FF4004235F8020B12FABA
:1023400083F39CB20028E3D1204638BD0A4401380B
:1023500011F8013B00F8013F9142F9D1704700BFED
:10236000F8B5846B00F13C070546224640783946B3
:10237000012304F07FFEB0B9EA6A6B6AE870A21A22
:102380009A420ED2AE78012E01D80AE06B6A6878C4
:102390001C44013E22463946012304F06BFE012E07
:1023A000F4D10020F8BD0120F8BD00BF38B5836B23
:1023B0008B4204460D4616D0C3787BB92A46607816
:1023C00004F13C01012304F047FE002818BF4FF040
:1023D000FF35A5630CBF0020012038BDFFF7C0FF0B
:1023E0000028EBD038BD002038BD00BF02392DE9F0
:1023F000F84FB0F80C8001F0070407464FF0010ACF
:10240000406BC9080AFA04F4B1FBF8F9164608FB58
:1024100019189B46E4B281444946384609F101093E
:10242000FFF7C4FF40BB07EB080292F83C5025427F
:1024300014BF01210021594585EA04054FEA4404EF
:1024400013D0013E82F83C5087F803A00ED014F060
:10245000FF04ECD1BB8908F10108984507EB08029D
:1024600006D292F83C500124E1E70220BDE8F88F43
:1024700001244FF00008CFE70120BDE8F88F00BF2E
:1024800001292DE9F84304680BD9236A994208D23F
:102490002378013B0D46032B03D8DFE803F0482DDA
:1024A0001E050120BDE8F883D0E9046756EA07035A
:1024B000F7D0C1798368A289B4F80A800229C3EBF6
:1024C000050963D0032900F08A80C369002B00F05E
:1024D0008B806FF00040BDE8F883A389E16A9B0818
:1024E0002046B5FBF3F31944FFF760FF00285DD0E9
:1024F0004FF0FF30BDE8F883A389E16A5B0820460E
:10250000B5FBF3F31944FFF751FF0028F0D1A2897E
:102510006900B1FBF2F302FB131163181C4693F838
:102520003C3094F83D0043EA0020BDE8F883E16ABE
:10253000A38905EB55062046B6FBF3F31944FFF7D4
:1025400035FF0028D4D1A189E26AB6FBF1F301FB83
:1025500013632344771C2046B7FBF1F1114493F831
:102560003C60FFF723FF0028C2D1A289B7FBF2F33A
:1025700002FB13773C44EB0794F83C0046EA00204A
:102580004CBF0009C0F30B00BDE8F88316F1FF3023
:1025900047F1FF31002313F067FDB0FBF8F08145F0
:1025A0003FF67FAF95D0681CBDE8F883A289A900EB
:1025B000B1FBF2F302FB1311631893F83F0093F899
:1025C0003E1093F83D2093F83C3041EA002042EA67
:1025D000002043EA002020F07040BDE8F8838369C2
:1025E0009945BFF472AFDEE7E16A93082046B5FB78
:1025F000F3F31944FFF7DAFE00287FF479AFA289DC
:10260000A900B1FBF2F302FB1311631893F83F40EA
:1026100093F83E0093F83D2093F83C3040EA0420C4
:1026200042EA002043EA002020F00040BDE8F883A1
:102630002DE9F04106683378042B0CBF4FF080532E
:102640004FF400138B4205460C4602D80220BDE829
:10265000F08111F01F08F9D18168046331B9337832
:10266000022B1CD9336BC171CBB11946B789738961
:1026700003FB07F7BC4207D22AE00128E6D9336AF8
:102680009842E3D2A74224D82846FFF7F9FE431C1C
:102690000146A4EB0704F0D10120BDE8F0813389A5
:1026A000B3EB541FD2D9D6F83080C5F838806963AF
:1026B000B8F1000FCAD0B289B4FBF2F302FB1342A7
:1026C00032443C324344EA63AB630020BDE8F0810E
:1026D000336A023B8A1E9A4204D2B6F80A80736BB0
:1026E00008FB0238C5F83880E1E700BF2DE9F84F54
:1026F000C378044663B92378032B0FD00021607898
:102700000A4604F0C5FC003018BF0120BDE8F88F70
:10271000FFF726FE0028EED0BDE8F88F2379012BC5
:10272000ECD1A28904F13C010A440B46002003F8D5
:10273000010B93424FF00005F9D1E369A069A26A49
:1027400084F824324FEA132A4FEA13491B0E4FEA4A
:10275000104C4FEA106E4FEA10280132522684F8CE
:1027600025A284F826924FF0610A4FF0410984F8BF
:102770002732552772234FF0AA0B84F8280284F8D9
:10278000203284F8213284F8298284F82AC284F81D
:102790002BE2A26384F83A7284F83BB284F83C607E
:1027A00084F83D6084F83EA084F823A284F83F902A
:1027B00084F822926078012304F05CFC25719DE787
:1027C00000224FF0FF3370B5C27083630446FFF7F9
:1027D000EDFD08B1042070BD94F83B1294F83A3234
:1027E0004AF6552243EA0123934201D0032070BDEB
:1027F00094F83C30E92B18D0E26B204902F0FF122C
:102800008A4212D01E4904F13D02EB3B47349BBB88
:1028100012F8013B11F8010FA242A3EB0003F6D11D
:10282000002B0CBF0120022070BD94F8756094F855
:10283000742094F8730094F87210124D42EA062244
:1028400040EA022241EA022222F07F42AA4211D04B
:1028500094F8916094F8902094F88F0094F88E107A
:1028600042EA062240EA022205F14C5541EA0222E0
:10287000AA42C7D1002070BD022070BDEB009000BD
:1028800054C50108464154002DE9F04F002385B09E
:102890000B600D461646FFF7EFFC041E1BDBDFF84E
:1028A000588508EB84031F6ACFB12F603B7806F090
:1028B000FE0623B1787804F0B5FBC10713D5E0B26A
:1028C000002378703B7004F0B7FBC20714D50320D7
:1028D00005B0BDE8F08F0B2005B0BDE8F08F0C20EF
:1028E00005B0BDE8F08FEEB100F0040303F0FF0087
:1028F000002BEDD00A20EBE70EB14307FAD478782D
:10290000022107F10C0204F0C3FB48B9BB89A3F50F
:102910000072B2F5606F03D85A1E12EA030403D0A6
:102920000120D5E73046D3E738462146FFF748FF78
:10293000022805D00428F3D001282CD90D20C7E7A0
:102940006D4669463B4607F1400693F8FE216AB1A1
:1029500093F805E293F8044293F8030293F80222F5
:1029600044EA0E2440EA042042EA00221033B34233
:1029700041F8042BE9D104AE55F8044B2CB90320DF
:10298000B542F9D10428D9D1CAE738462146FFF724
:1029900017FF0128F4D8012800F0B78097F84820E5
:1029A00097F84730B7F80CE043EA02239E45C5D1BB
:1029B00097F8536097F8523053EA06260DD197F8EE
:1029C000631097F8622097F8613097F8606042EAE8
:1029D000012243EA022346EA032697F84CC07E62AE
:1029E0000CF1FF33012B87F802C0A7D897F84930C4
:1029F0009AB20CFB06FC7A81002A9FD05A1E1A421A
:102A00009CD197F84E5097F84D104FEA5E1241EA6C
:102A10000525B5FBF2F002FB105292B23D81002A6F
:102A20008CD197F8501097F84F2052EA01220DD11F
:102A300097F85F2097F85E9097F85D1097F85CA084
:102A400049EA022241EA02224AEA022297F84B901E
:102A500097F84A1051EA09213FF470AF11FA80F05B
:102A600060448242FFF46AAF121AB2FBF3F3002B08
:102A70003FF464AF4FF6F572934200F2148140F6D2
:102A8000F572934200F2F2800233214420443B620B
:102A9000F9627863BC62002D3FF450AF0EF1FF3055
:102AA00003F00102024403EB4303614402EB5303CE
:102AB000B3FBFEFE76453963FFF440AF4FF0FF33C2
:102AC00080223A71FB61BB6101223A70B8F8243070
:102AD000D8F80010C84A01339BB28F42A8F82430BE
:102AE000FB8008BF002302F50A7008BF136002F1E3
:102AF0002804D8F81020786197423C61BE4B4FF013
:102B000000007FF4E5AE1861E2E607F1460307F145
:102B10007B0113F8012F002A7FF410AF8B42F8D10C
:102B200097F8A52097F8A43043EA0223B3F5807FF5
:102B30007FF404AF97F8A810BA8901238B40934221
:102B40007FF4FCAE07F18400FFF7B8FA001941F1F9
:102B50000001012908BF0028BFF4F0AE97F893E008
:102B600097F8926097F8915097F8AA3097F89020CC
:102B7000BB7046EA0E2645EA062542EA0522012BED
:102B80007A627FF4DBAE97F8A92093409BB27B81F9
:102B9000002B3FF4D3AE97F89B5097F89A6097F8C4
:102BA000992097F898C0DFF858E246EA052542EAEE
:102BB00005224CEA022575453FF6C0AE97F897B05E
:102BC00097F896A097F8956097F8942097F88FE07B
:102BD00097F88EC097F88D90BC624AEA0B2A46EAB5
:102BE0000A2A42EA0A22224403FB05FA1AEB020AE5
:102BF0004CEA0E2E97F88C607A634FF0000B49EA8E
:102C00000E2E4BF1000B46EA0E265945344408BF00
:102C1000504505F10206FC623E62FFF48FAE97F864
:102C20009F6097F89E4097F89D0097F89C1044EAA3
:102C3000062440EA042041EA0020811E8D423863C8
:102C40008CBF03FB012100213846FFF7AFFB0028B2
:102C50007FF466AEBD8903463A46AB426DD292F828
:102C60003C10812959D020332032F6E70233214429
:102C700020443B62F9627863BC62002D3FF45EAE93
:102C80000EF1FF32614402EB4303B3FBFEFE7645D7
:102C90003963FFF453AE4FF0FF3380223A71FB618A
:102CA000BB61022211E797F867C097F86620BC6203
:102CB00002332144204452EA0C223B62F9627863D9
:102CC0007FF43CAE002D7FF439AE97F86BC097F8D7
:102CD0006A0097F8691097F8682040EA0C2041EAEA
:102CE000002142EA01210EF1FF3202EB8303B3FB24
:102CF000FEFE76453963FFF421AE97F86D1097F824
:102D00006C3043EA01234FF0FF328021012BFA613E
:102D1000BA6139711AD00322D7E692F8536092F85B
:102D2000524092F8510092F8501044EA062440EACA
:102D3000042041EA0021022995D19D423FF4FEADD5
:102D40004FF0FF33FB61BB610422BEE6611C3846D5
:102D5000FFF72CFB0028DED197F83B2297F83A3298
:102D60003D7143EA02234AF655229342D3D197F8A4
:102D70003F4097F83E1097F83D2097F83C301F48A9
:102D800041EA042142EA012243EA02238342C2D1FA
:102D900097F8234297F8221297F8212297F82032C9
:102DA00000F1FF5041EA042100F5005042EA0122FF
:102DB000203043EA02238342ADD197F827E297F807
:102DC000265297F82B6297F82A4297F8250297F82F
:102DD000291297F8242297F8283245EA0E2544EA6A
:102DE000062440EA052041EA042142EA002243EA9F
:102DF0000123FA61BB618EE73C0D00205252614114
:102E0000FDFFFF7F2DE9F8430378013B04460D46A3
:102E10001746032B00F2A680DFE803F04E310202D2
:102E20008389C16A9B08B5FBF3F31944FFF7BEFA27
:102E3000064608BB2378A289AD00042BB5FBF2F34C
:102E400002FB135504EB050300F0898093F83F1053
:102E5000090627F0704701F070413C3325440F43C9
:102E60004FEA172E380C390E012285F83C7083F892
:102E700001E09870D970E2703046BDE8F88383892C
:102E8000C16A5B08B5FBF3F31944FFF78FFA0646F6
:102E90000028F1D1A2896D00B5FBF2F302FB1355B6
:102EA0006119C7F30722012381F83C7081F83D20A6
:102EB000E3703046BDE8F883C16A838905EB5508A5
:102EC000B8FBF3F31944FFF771FA06460028D3D193
:102ED000A289B8FBF2F3E90708F1010902FB1383A9
:102EE0001CD5B9FBF2F22344E16A93F83C50F8B2E6
:102EF00005F00F0545EA0010012583F83C00114458
:102F0000E5702046FFF752FAA8B9A389B9FBF3F29E
:102F100003FB1299C7F30717A1441BE02344E16A9E
:102F200083F83C700123B9FBF2F2E37011442046B0
:102F3000FFF73CFA08B106469EE7A389B9FBF3F216
:102F400003FB1299A144C7F3032799F83C3023F0FF
:102F50000F031F43012389F83C70E3708CE73C3377
:102F600025447DE7022687E701292DE9F843074636
:102F70000C46066802D9336A994202D30220BDE8A2
:102F8000F88390469AB13278042A0DD0B8F1010F37
:102F9000F4D94345F2D9304641464FF0FF32FFF7AE
:102FA00031FF20B1BDE8F883C279022AEED1A146F3
:102FB0001BE0304621460022FFF724FF002854D1B1
:102FC000316AF3698A1E934205D23279013342F0A5
:102FD0000102F3613271621CAA4203D03378042BE0
:102FE00018D0A9468D422C461FD238462146FFF7FD
:102FF00047FA0546C8B10128C0D0431C2DD033780C
:10300000042BDDD0012CB9D9336A9C42D1D30220E4
:10301000BDE8F883C9EB0202494630460023FFF7BA
:10302000E5F930B9316AA946DCE73378042B02D0E0
:103030000020BDE8F883B8F1000F11D0FB79032B15
:10304000F6D1BA689045F3D3BB6913449845EFD8DD
:103050000223FB710020BDE8F8830120BDE8F8835E
:1030600087F807804046BDE8F883BDE8F88300BFD5
:103070002DE9F0410C680D46804616461F46BCB14E
:10308000321B511C012C8CBF02323A460129D8F860
:10309000000002D9036A994202D30220BDE8F08100
:1030A000FFF7B0FE38B92C68013C2C60002CE7D14A
:1030B0000020BDE8F081BDE8F08100BF70B58669F1
:1030C00084680546D6B1012C006802D9036A9C4287
:1030D00001D3022070BD2644013406E0012C28688B
:1030E000F7D9036AA342F4D914462246611EFFF7BA
:1030F00089FE621C0028EDD1B442EFD10020E871B6
:1031000070BD00BF2DE9F0410024D0F800808C761E
:10311000836B002B6DD098F80030042B0D460646CB
:1031200070D0C36C01331BD0D8F81030188801F16F
:10313000190758B90FE0FF2C04F101040BD007F870
:10314000010FD8F8103033F8140028B1002103F033
:10315000AFFF0028EFD100242C440023A376AC7EDF
:1031600000210B464FF02E0EF26BD25C202A03F1A9
:1031700001031BD0052A08BFE522092B00F083803C
:10318000681842738CB9A2F14107192F0CD8F76B5C
:10319000082B3F7B8CBF4FF0100C4FF0080C1CEA43
:1031A000070F1CBF2032D2B2827601310B2BDBD14C
:1031B000681804B300244473F36BDB7A2B73F36B4E
:1031C000DE7F9A7F587F197F6C6042EA062240EAD0
:1031D000022241EA02222A605C7E187ED97D9A7D15
:1031E00040EA042341EA032342EA03231A0C6B81D9
:1031F0002A81BDE8F0818476F36B1B7B002B08BF2E
:103200002846D7E7D8F8147097F82330DBB101F1DE
:103210001908402609E0FF2C04F1010413D008F836
:10322000010F97F823309C4210D2F20608BF0236F5
:10323000BA19BB5D5078002143EA002003F038FF43
:1032400002360028E7D13F23AB7601242C4400232B
:10325000A3766B733B792B73DB0611D407F138002F
:10326000FEF72CFFC5E900017A7B3B7B43EA022392
:103270006B81FA7BBB7B43EA02232B81BDE8F081A3
:1032800000200021EEE768180CB980F81AE080F8F9
:103290000DE0013174E700BF2DE9F04706460F4607
:1032A0000568002940F08D80D5F81880B8F1000F2E
:1032B00024D12B78042B00F093802B6A4FF0010867
:1032C000444606E0012877D0431C75D0444575D0AC
:1032D0002B6A01349C42304603D3B8F1010F6DD9FB
:1032E00002242146FFF7CCF80028EBD1012C02D9AB
:1032F0002B6AA34279D80120BDE8F0872B6A984554
:10330000D7D22A78042ADBD1023BA8F102099945D9
:1033100028BF4FF00009A9894C466B6B4FEAD40ACD
:103320002846BAFBF1F11944FFF740F8002876D19E
:10333000A9892A6ABAFBF1F004F0070E012303FA07
:103340000EF301FB10A0DBB2A2F1020C2A1804F16B
:10335000010E92F83C20E64502EA03024FEA4303DD
:103360006AD2DBB2F246002A5DD11EF1030F04F1EE
:10337000020400F290800122134628462146FFF7FE
:1033800035F80228B7D0012849D0002F5AD102239E
:10339000F3710028AFD12B6AEA69AC61023B9A4213
:1033A0002B7943F0010398BF02F1FF322B7198BFD4
:1033B000EA612046BDE8F087BDE8F0870020BDE85F
:1033C000F087FFF75DF8012895D9421C27D02B6ABA
:1033D0009842F1D32A78042AB8467FF471AF93E774
:1033E0004FF001084FF0000995E7284621464FF0BD
:1033F000FF32FFF707FD78B9002FCCD0012F7FF601
:103400007AAF2B6A9F42BFF476AF394628462246F0
:10341000FFF7F8FC0028BED001287FF46CAF4FF016
:10342000FF30BDE8F087CA45C8D01BB901308142E2
:1034300006D90123544689E700239A46084692E7B5
:1034400054466AE7F379022B18D07A1CA2420FD0B7
:10345000F3690BB90123F3613A46304606F11C01CA
:103460002346FFF705FE0028D6D10123F36192E73A
:10347000F36973B10133F36114468AE708F101037C
:10348000A34286D0B3680322C3EB0803B361F27191
:10349000DBE70223EFE72046BDE8F087826B2DE9EA
:1034A000F84F0468056B12B90420BDE8F88F267840
:1034B000042E05F120050CBF4FF080564FF4001686
:1034C000AE42F1D90E46A189B5FBF1FE01FB1E57B4
:1034D000834627BB416B0132826349B36289013A5B
:1034E00012EA0E081BD1FEF7CBFF0128074629D9A7
:1034F000421C3AD0226A904227D2861E023A964255
:10350000CBF8347004D2B4F80AE0626B0EFB0628E4
:10351000A189CBF83880B5FBF1F201FB1257E11914
:103520003C31CBF83C10CBF830500020BDE8F88F90
:103530002289B2EB551FF2D80022CBF838200420A4
:10354000BDE8F88F0220BDE8F88F002EF4D0584671
:10355000DBF83410FFF7A0FE074648B90720BDE8A6
:10356000F88F2046FEF7FCFE78B10120BDE8F88F09
:103570000128E7D0431CF8D09BF8072042F0040252
:103580008BF80720E278002AEBD1A28904F13C01F4
:103590000020013A01F8010BFBD1216ABE1E02395D
:1035A0008E4238BF626B618938BF01FB0622A2637D
:1035B0004FF000094FF0010A0BE084F803A0FEF77A
:1035C000CFFE0028D1D1A26B6189013209F1010936
:1035D000A26389452046F0D3A16B226AC9EB0101A1
:1035E000A1638BE7F8B505460068A96B4669FEF74D
:1035F000DDFE044628B9E96B0B78852B02D002204A
:10360000F8BDF8BD30462022FEF7A0FE77780137DE
:103610007F01A7F16003B3F5007FF0D8214628466B
:10362000FFF73CFF00B1F8BD2868A96BFEF7BEFEAE
:103630000028F8D1E96B0B78C02BE0D1202206F1ED
:103640002000FEF783FE96F823300F222C33B3FBC5
:10365000F2F3B7EB431FD2D3402402E02034A74259
:1036600017D928460021FFF719FF0028DBD1286869
:10367000A96BFEF79BFE0028D5D1E96B0B78C12B17
:10368000BDD1B4F5187FE9D230192022FEF75EFED5
:10369000E4E7B4F5187F01D90020C4E73046FEF70F
:1036A000D1FDF278B37843EA02239842A7D1F3E739
:1036B000F8B50F46002104460668FEF7B9FFC8B901
:1036C00005463046A16BFEF771FE98B93378042B9E
:1036D000E36B15D01A78B2FA82F3E52A01D05B09C0
:1036E00063B10135BD4210D001212046FFF7D6FE5F
:1036F0000028E6D0042808BF0720F8BD1D46F3E7E0
:103700001B78DB43C3F3C013EAE7F8BD2DE9F843A8
:1037100003685E6904463046FEF794FD030AB07004
:10372000F370E16C96F801802046FEF781FF08BB3C
:1037300007464FF001090EE0E06BFEF707FE236835
:1037400047452046294683F8039019D0FFF7A6FE87
:103750000137203670B9A16B2068FEF727FE31468D
:10376000054620220028E7D0022828BF0225E8B21B
:10377000BDE8F883022828BF0220C0B2BDE8F88364
:103780002846BDE8F88300BFC16C4B1C2DE9F04111
:1037900004460568066B06D0FEF74AFF034610B1E3
:1037A0001846BDE8F0814FF0E50801270DE0E26B17
:1037B00082F80080EF70226B96424FF000012046A5
:1037C000EED9FFF76BFE034670B92846A16BFEF7F2
:1037D000EDFD034640B92A78042AE8D1E16B0A7866
:1037E00002F07F020A70E5E7042B08BF02231846A7
:1037F000BDE8F0812DE9F0474FF0FF080546066867
:10380000DFF848914746042413E0CA7AE52B02F01A
:103810003F02AA7105D02E2B03D022F020000828E9
:1038200026D1FF2728460021FFF738FE044600284E
:103830005AD1A96B00295FD03046FEF7B7FD044688
:10384000002851D1E96B0B78002B4CD03278042A38
:10385000DBD1852BE6D12B6BEB642846FFF7C2FE4C
:1038600000284ED173691B7903F03F03AB713DE033
:103870000F2A48D15A063CD52A6B91F80D80EA648C
:1038800003F0BF074C7B4445CBD1CA7E8B7ED6F874
:1038900010C053EA022323D10B782B4A23F04003B4
:1038A000013B03EB430003EB80004FF0010E4FF6AA
:1038B000FF7807E0FE2813D82CF810309E46013020
:1038C0004A4534D012F8013B01EB030ACB5C9AF86D
:1038D00001A043EA0A23BEF1000FEBD14345EFD02C
:1038E000A046FF279EE704240023AB632046BDE8E3
:1038F000F087BB4295D1C5E7002CF5D12046BDE845
:10390000F0870446F0E777B901F10B06234611F87A
:10391000010BDA0142EA530350FA83F3B142DBB2FE
:10392000F5D19845E2D04FF0FF33EB64DEE70B783A
:103930005B0604D5FE28D3D800232CF81030013FB5
:10394000FFB2A0466EE700BF20C001082DC00108ED
:103950002DE9F04F002187B006460768FEF768FEA4
:10396000002857D13B78042B00F0AD804FF0FF3397
:103970004FF0FF0ADFF800B2F364984654460AE0BD
:103980000F2A4AD0C6F84C80FF2430460021FFF7AA
:1039900085FD00283ED13846B16BFEF707FD0028B3
:1039A00038D1F56B2B78002B00F08980E97AE52B74
:1039B00001F03F02B271E5D00907E1D40F2A2CD003
:1039C0007CB905F10B00294611F8012BE30143EA0C
:1039D000540452FA84F48142E4B2F5D1A24500F0D5
:1039E000B28096F84B30DB07CCD42846314610F82D
:1039F0000B3B11F8402F01359B1A002BC2D115F853
:103A0000013B11F8012F8542A3EB0203F5D1002BF6
:103A1000B8D1184607B0BDE8F08F96F84B20520693
:103A2000B3D4580647D5326B95F80DA0F26403F075
:103A3000BF036A7B524540D1E87EA97E3C69019470
:103A400051EA002134D12978059301F03F01013971
:103A500001EB410901EB89094FF0010E0496DFF8F3
:103A60001CA10297039273464E460FE0FE2E1CD80F
:103A700003F042FB019B814633F8160003F03CFB48
:103A8000814512D123463E46DA4560D01AF8010B33
:103A90002C18285C647840EA0424771C2046002B0C
:103AA000E4D14FF6FF729442EED0029F039A049E37
:103AB0009246FF2469E79C42BBD0FF2465E70420BF
:103AC00007B0BDE8F08F3869FEF718FC8146304634
:103AD000FFF790FE0446A0BB7B6993F8251093F88E
:103AE000242042EA01229145F1D193F8232062B3C8
:103AF00002F1FF3A5FFA8AFA0AF1010AA04640256C
:103B000000E07B69E80608BF02355A195B5D507812
:103B100043EA002003F0F0FA3B69834633F81800CB
:103B200003F0EAFA834508F1010805F10205CED158
:103B3000D045E6D14FEA48083B6933F80830002BFE
:103B4000C5D1204666E7002064E7A046F4E729785F
:103B5000029F039A4906B1469E46049E059B07D5DF
:103B6000BEF1000F04D0019931F8191000299FD13E
:103B7000013BDCB2924608E72DC0010820C00108D5
:103B80002DE9F04F076883B005460C4611F8013B5C
:103B90002F2BFAD05C2BF8D00021A960E9612078A6
:103BA0001F2840F278813B4680B21F281E6940F2F0
:103BB00002812F2830D05C282ED00121A6F1020BE3
:103BC000A2464FF0010903F073FA08B37F2809D821
:103BD00022281DD0BE4A01E0984219D012F8013FB8
:103BE000002BF9D12BF8020F1AF8010F1F2809F149
:103BF000010340F2E3802F2811D05C280FD0B3F5E9
:103C0000807F05D00121994603F052FA0028DDD1CA
:103C1000062003B0BDE8F08F4FF0000901232344D4
:103C20001A782F2A1C4603F10103F9D05C2AF7D039
:103C30004FF0000AB9F1000F0AD006EB490232F842
:103C4000023D202B01D02E2B05D1B9F10109F6D16F
:103C500000233380DCE7002326F8193006EB490106
:103C600005F1400305F14B00202203F8012B8342AC
:103C7000FBD1B31E002200E0013233F8020F2028EE
:103C8000FAD02E28F8D093460AB14AF0030A0B4620
:103C900033F8022D2E2A02D0B9F10109F8D1002201
:103CA00090464FF0080C0BF1010BA0B3202821D057
:103CB0002E281CD0624522D2D94500F0B0807F2842
:103CC00000F2B9802B2800F0C780824B02E08842C6
:103CD00000F0C28013F8011F0029F8D1A0F14101C2
:103CE000192900F2E18048F00208C0B2B7E0D945D6
:103CF00000F095804AF0030A36F81B00D3E7BCF1C8
:103D00000B0F00F0B480D94500F08C80CB454AF011
:103D1000030A40F2878095F84020E52A00F0B08041
:103D2000BCF1080F04BF4FEA88035FFA83F808F07C
:103D30000C020C2A00F0988008F00301032900F01F
:103D400093801AF0020F09D108F00303012B08BF7A
:103D50004AF0100A042A08BF4AF0080A85F84BA066
:103D60002846FFF7F5FD95F84B30002840F0A68077
:103D70005A073FF54EAFAB79DB0640F188803978C2
:103D800004291FD0286BBB89B0FBF3F203FB12039D
:103D90003B44032993F8570093F8562003F13C0362
:103DA00042EA002234D0AA6020782B6880B21F2813
:103DB0001E693FF6FEAE4FF0000901231C444FF090
:103DC000040A37E72969EA797B69AE68E86C2E62F4
:103DD00021F0FF010A436A62A86293F8376093F802
:103DE000360093F8351093F8342040EA062041EA73
:103DF000002142EA0122AA6093F8213003F0020375
:103E0000EB7178693830FEF759F9C5E90401CBE761
:103E1000597D1B7D43EA012342EA0342C3E7BCF11B
:103E20000B0F24D04FEA88035FFA83F8CB464FF09C
:103E30000B0C082260E700218DE8041003F038F92C
:103E40009DE8041000B3244B18444AF0020A10F80D
:103E5000700C00287FF436AF4AF0030A5F20A918DF
:103E6000013281F8400047E74AF0020A69E795F815
:103E70004020E52A4AF0030A7FF459AF4FF00B0CBB
:103E8000052285F840204BE74AF0020AE4E70520C6
:103E900003B0BDE8F08F8023284685F84B3003B08F
:103EA000BDE8F04FFEF7C4BBA0F16101192997BF2F
:103EB0002038C0B2C0B248F00108D0E704287FF42F
:103EC000A8AE13F0040F08BF052003B0BDE8F08FC3
:103ED00060C501086CC5010820C001082DE9F04F3C
:103EE00090F84B30066813F0A00299B003D006207A
:103EF00019B0BDE8F08F33691F882FB1174633F82A
:103F0000022F0137002AFAD13378042B044600F03F
:103F1000B18000F140050C22294604A8FEF716FAEC
:103F20009DF81B30DA072FD49B0740F1A181CE4BBF
:103F30000C37A3FB07234FEA930A0AF1010120463D
:103F4000FFF7B6FB0028D3D1BAF1000F40F09A81F9
:103F50003046A16BFEF72AFA0028C9D1E36B03F1C2
:103F6000200203F8010B9342FBD12946E06B0B22A0
:103F7000FEF7ECF994F84B30E16B03F018030122E3
:103F80000B730020F270B3E7402384F84B302846CF
:103F900004A90B224FF00108FEF7D8F943460DF1B2
:103FA000100E072203F00F0000F13001392988BFFD
:103FB00000F137011B0902F1FF320EF8011DF1D1AA
:103FC00018A911447E2001F8580C002A50D094F80A
:103FD0004010202908D0294603E011F8010F2028BD
:103FE00002D001339342F8D1E91818A81044072AE7
:103FF00003F1010396BF10F8580C20200132072B63
:1040000001F8010BF1D92046FFF7A2FC40BB08F1F3
:104010000108B8F1640F00F03381284604A90B228F
:10402000D6F81090FEF792F9B8F1050F16D9A9F15C
:10403000020E43463EF8022F002AB0D0102102F0B3
:10404000010000EB4303D80344BF83F4883383F0BB
:10405000210301394FEA5202F1D1EBE743469EE7D3
:1040600004287FF445AF9DF81B3084F84B305BE7A4
:104070001346B9E77D4B0E37A3FB0723DD08A91CC8
:10408000FFF716FB00287FF433AF05F10063226BC6
:10409000A1680133A2EB4313E364002900F08F8091
:1040A000E3795D0740F18B80D4E904017389B58918
:1040B000626BE3FB0501C4E904014FF0FF332046C6
:1040C00004F11C01FEF7D4FF00287FF411AFA36AAE
:1040D000676A2568099027F0FF021946179304A81C
:1040E000236A8DF81770089204950693FEF7A0FADC
:1040F00000287FF4FDAE04A8FFF774FA00287FF4CF
:10410000F7AED4F810E0616973694FEA1E2747EAF9
:1041100001670A0A3D0A45EA0265280A0A0C40EAD4
:104120000260020A090E42EA01624FEA12284FEACF
:10413000124C110E83F8397083F83A5083F83B0023
:1041400083F83C2083F83D8083F83EC083F838E054
:1041500083F83F10D4F810E0616973694FEA1E27B5
:1041600047EA01670A0A3D0A45EA0265280A0A0C7D
:1041700040EA0260020A090E42EA01624FEA12288E
:104180004FEA124C110E83F82B0083F828E083F8D5
:10419000297083F82A5083F82C2083F82D8083F827
:1041A0002EC083F82F10E379726943F0010304A84D
:1041B00082F82130FFF7AAFA00287FF499AED6F8EA
:1041C0001480306908F140014346002203F8012BB6
:1041D0008B42FBD185214FF0000EC023012288F8CD
:1041E000001088F8203094467546F24640214FF082
:1041F000C1094C1C08F8019008F804A008EB010361
:104200000231F2B900EB4507144616460231DC7064
:10421000CC069E7003F10203F3D13C880CF1010C33
:104220005FFA8CFC002CE4D188F823E088F801C008
:10423000FEF764F8030A88F8240088F82530204641
:1042400056E630F815200EF1010400EB450742B1A7
:104250005FFA84FE0FFA8EF500EB4507D6B2140A1A
:10426000D4E714461646D1E74FECC44E89888888B7
:1042700020460121FFF71CFA00283FF469AE37E61B
:10428000072035E6216B2046A1EB4A11FEF7D0F955
:1042900000287FF42DAE0346294604F14B0011F8A7
:1042A000017BDA0142EA530357FA83F38142DBB21E
:1042B000F5D1DFF8B080009301953046A16BFEF791
:1042C00075F80346002B7FF413AEE56B9DF80000F4
:1042D000D6F810C068735FFA8AF909F1FF3101EB73
:1042E000410001EB80010F201D4AE8722B73AB7671
:1042F000EB764FF6FF7E4FF0FF0B0CE03CF81130F1
:104300002B5428441F0A013147700BB94FF6FF7335
:10431000013242450AD073451078EFD12F1801328F
:10432000424505F800B087F801B0F4D14FF6FF72AE
:10433000934202D03CF811300BB949F040090123F7
:1043400085F800902046F3700021FFF7A7F80028B9
:104350007FF4CEADBAF1010AAFD1019DF8E500BFFF
:1043600020C001082DC0010830B585B004AB019014
:1043700043F8041D184600911446FDF77DFF002800
:104380001BDB144B80001A18126A62B11968114DB8
:104390008A4204BF0021196019698A4204BF0021C2
:1043A000296100211170019A03444AB10020012CB7
:1043B00010701A6207D005B030BD0B2005B030BDBB
:1043C00010461A62F7E7024601A96846FEF75CFA52
:1043D00005B030BD3C0D00202DE9F04F99B00191A2
:1043E00070B102F03F060446154601A8324603A903
:1043F000FEF74AFA40B10023236019B0BDE8F08F00
:10440000092019B0BDE8F08F18AF039B47F8503D65
:1044100001993846FFF7B4FBD0B99DF95B30002B0A
:10442000C0F2118136F0010814BF01210021384685
:10443000FDF77EFE15F01C0F24D060B99DF81630F4
:1044400013F0110F40F0D6806B0714D50820D2E787
:1044500015F01C0FCFD00428CDD1AB4B1A681AB180
:104460001B691220002BC6D13846FFF737FD46F0F6
:1044700008060028BFD1350700F1F080039D26F023
:10448000010814E00028B6D19DF81630D80600F1D6
:10449000DC80A90702D5DA0700F1AC8005F008033B
:1044A000DBB2039D1BB146F0400626F00108AA6B63
:1044B000139BA26418F10001384618BF0121E36480
:1044C000FDF770FEE06208B9022094E7039F397897
:1044D000042900F09180139BD87E9A7E032942EA3A
:1044E000002200F0B480A260D87F997F5A7F1B7FA2
:1044F00041EA002142EA012243EA02230022236129
:10450000626100210020FB88A3800022C4E90E0123
:1045100004F1540504F58251276084F83060226567
:1045200084F8312062642B46143103F8012B8B424E
:10453000FBD1B30656D5D4E9048958EA090351D012
:10454000BE897B89D4F808A0002703FB06F64F45F7
:1045500008BF4645C4E90E892046514611D2FDF7F1
:104560008FFF0128824643D9B0F1FF3F3CD0B8EB22
:10457000060869EB07094F4508BF464520465146E6
:10458000EDD3DDF80CB0C4F840A0BBF80C600027F8
:1045900032463B464046494611F066FD134321D062
:1045A000DBF82030AAF1020A023B9A458CD2BBF814
:1045B0000A20DBF8343002FB0A3ABAF1000F83D04C
:1045C00032463B464046494611F04EFD0AEB00029A
:1045D00062649BF801002946012302F03DFD08B109
:1045E000012008E7002008E70120C4F840A002E706
:1045F0000220FAE70720FEE6089A9DF817307D6949
:1046000006981799206222F0FF0213436362A162A9
:1046100095F8370095F8361095F8352095F8343030
:1046200041EA002142EA012243EA0223A36005F1A4
:104630003800FDF743FDC4E9040195F8213003F08B
:104640000203E3715DE70620D5E60420D3E6587D3A
:10465000197D41EA002142EA014244E7FDF750F9A1
:10466000039D2B78042B804650D0139BC8F3072161
:10467000C8F30742C0B24FEA1868D9731A7483F8B6
:1046800011809873139BD9751A7683F819809875E1
:10469000139B2022DA72139B2A7893F81B80997E51
:1046A000032A41EA082827D000229A76DA76297868
:1046B000032904BF1A755A75139B002201211A772A
:1046C0005A779A77DA77E970B8F1000F3FF4EBAEDA
:1046D00038464146AD6BFEF747FC00287FF48BAEB1
:1046E00029460398FDF762FE039D08F1FF33AB6195
:1046F00000283FF4D8AE7EE6597D1A7D42EA0122B9
:1047000048EA0248D0E700BF3C0D0020D5F81490DD
:10471000256099F8370099F8361099F8352099F8FE
:10472000343041EA002142EA012243EA0223A36035
:1047300009F13800FDF7C2FCC4E9040199F8213001
:1047400003F00203E3716A690023C8F30720C8F38A
:1047500007415FFA88FE4FEA1868E3615072917270
:1047600082F808E082F80B806A6913756A695073F1
:10477000917382F80CE082F80F806A6953756A6958
:10478000202111716A6982F8343082F8353082F85C
:10479000363082F837306A6982F8383082F839303A
:1047A00082F83A3082F83B3082F83C3082F83D3073
:1047B00082F83E3082F83F306A6982F8283082F809
:1047C000293082F82A3082F82B3082F82C3082F897
:1047D0002D3082F82E3082F82F306B69012283F859
:1047E00021203846FEF792FF00287FF404AEA1682E
:1047F00009B9039D57E602462046FEF7B5FBA368BC
:10480000039D013BAB6173E72DE9F04F87B01C4678
:10481000019300230091236005A990460646FDF709
:1048200051FD38B996F8310020B996F83030DA07E2
:1048300003D4072007B0BDE8F08FD6E90EABD6E968
:104840000423B2EB0A024FF0000163EB0B038B422F
:1048500008BF424538BF9046B8F1000F00F0F6801F
:1048600006F15403059F0393BC89002522462B467D
:104870005046594611F0F8FB52EA0301029772D1F3
:1048800022462B465046594611F0EEFBB7F80AC0B7
:104890000CF1FF3C1CEA000C00F08180306C3B6A9C
:1048A0000238023B984280F0A5807A897D6B02FB3A
:1048B0000050002800F09E80BB89B8FBF3FA00EBA3
:1048C0000C051C46BAF1000F31D00CEB0A039342E1
:1048D00088BFCCEB020A787800992A46534602F04A
:1048E000BBFB002840F08A8096F93030059F002BF2
:1048F000C0F29B80BA89D6E90E010AFB02F2C2EB34
:10490000080892464FF0000B019C1AEB000A23683E
:104910004BEB010B009913441144C6E90EAB009117
:104920002360B8F1000F00F09180059F9CE7726C46
:10493000AA420FD096F93030002B66DB029B039918
:1049400058782A46012302F087FB002856D1059F9C
:10495000BB891C46D6E90EAB1A46756450465946CB
:10496000002311F081FBBAFBF4F104FB11A1641ADE
:10497000444504D8002C72D1C6E90EAB74E732442A
:1049800002F15401002542460098FDF7DFFCC246C3
:104990004246D6E90E014FF0000BA846B4E75AEAAA
:1049A0000B0308D1B068012824D9431C26D0059FE9
:1049B0003064029773E7346DCDF808C0002C47D0FF
:1049C00035680023AA895046594611F04DFB002353
:1049D0006A8911F049FB6368DDF808C004344BB103
:1049E000984202D20EE083420CD8C01A54F8083F15
:1049F000002BF8D1022086F831001BE7012086F851
:104A0000310017E763681844CDE7787803990123EC
:104A100002F030FB0028F1D196F83030059A02926E
:104A200003F07F0386F8303088E7706C401B8245C6
:104A30007FF660AFBA89002A3FF45DAF009B03990F
:104A400002FB0030FDF782FC059F53E70020F1E6F2
:104A50003046316CFDF714FDDDF808C0A3E73244A1
:104A6000C4EB080502F15401A0468CE72DE9F04F94
:104A7000994687B000230C46C9F8003005A91746AF
:104A80000546FDF71FFC38B995F8310020B995F8B7
:104A900030309A0703D4072007B0BDE8F08FDDF867
:104AA000148098F80020042A03D0AA6BD74228BFAC
:104AB000D743002F00F0EB80D5E90EAB05F154038E
:104AC000CDF808900393A146B8F80C400194002655
:104AD000224633465046594611F0C6FA52EA0301BF
:104AE000DDF804C040F09380624633465046594694
:104AF00011F0BAFAB8F80AC00CF1FF3C1CEA000C3D
:104B000013D15AEA0B0340F0A180A868002800F0F6
:104B1000FA80012800F00381431C00F0BE80AB68DE
:104B20002864DDF8148003B9A86095F93030002BB3
:104B3000C0F2B7802B6CD8F82020023B023A934297
:104B400080F0ED80B8F80A00D8F8346003FB006606
:104B5000002E00F0E480B8F80C20B7FBF2FA6644AF
:104B60001446BAF1000F41D00CEB0A03834288BF10
:104B7000CCEB000A494698F801003246534602F051
:104B800079FA002840F08980696C059B891B8A4569
:104B900009D99A89002A40F0A08095F8302002F0C7
:104BA0007F0285F830209C8904FB0AF4D5E90EAB1E
:104BB0003F1BD5E904231AEB040A4BF1000B9B457C
:104BC00008BF9245504638BF1046029A594638BF32
:104BD000194613682861A1441C44C5E90EAB6961FC
:104BE0001460002F51D0DDF814806DE76B6CB34278
:104BF000D5E90EAB05D0D5E904018B4508BF824548
:104C000072D36E6450465946002311F02DFABAFB58
:104C1000F4F104FB11A1641ABC420BD83E46002CEF
:104C200040F08B8095F8303063F07F03374685F88D
:104C30003030BEE72A4402F15400002649463A4685
:104C4000FDF784FB3C46D5E90EABEBE72C6DCDF8C8
:104C500004C0002C67D02E680023B2895046594604
:104C600011F002FA0023728911F0FEF96368DDF891
:104C700004C004344BB1984202D228E0834226D8C3
:104C8000C01A54F8083F002BF8D195F8303043F0A3
:104C9000400385F830300020FEE6012085F8310021
:104CA000FAE698F801006A6C0399CDF804C0012374
:104CB00002F0E0F90028F0D195F83030DDF81480EA
:104CC000DDF804C003F07F0385F8303032E7616817
:104CD000084400287FF41DAFD7E702FB0191039839
:104CE000FDF734FB059B58E798F80100039932461D
:104CF000012302F0B1F90028CFD1059B9A89D5E9AB
:104D00000EAB14467DE701462846CDF804C0FEF7F9
:104D1000C3FADDF804C000287FF4FBAEB5E702203B
:104D200085F83100B8E62846296CFEF7B5FADDF8BB
:104D300004C000287FF4EDAEA7E72A443E1B02F131
:104D4000540027467AE700BF70B50A2982B00E46A4
:104D500005461AD06A68002A08DBAB18541C3C2CA4
:104D60001E7305DCAB686C600133AB6002B070BDD4
:104D70002946224601AB51F80C0BFFF777FE019B49
:104D8000E41A18BF4FF0FF34ECE70D21FFF7DCFF0A
:104D9000E0E700BF4268002A14DB10B5014682B08C
:104DA000044601AB51F80C0BFFF760FE30B96268A6
:104DB000019B9A4202D1A06802B010BD4FF0FF30B3
:104DC00002B010BD4FF0FF30704700BF2DE9F04733
:104DD00096B001A90446FDF775FA00284AD194F867
:104DE000302002F0400303F0FF00002B42D01306F6
:104DF00000F1F980FCF784FD054601980378042B47
:104E00003BD0A16CFDF7D2FAA0BBE36CDA7A42F09A
:104E10002002DA72A26821689A76C2F30720D87657
:104E20000978032900F0F180226901991A7700209E
:104E30004FEA12294FEA12484FEA152C120E4FEA98
:104E4000154E2F0E01269874D8749D7583F81D9009
:104E500083F81E80DA7783F817C083F818E05F764E
:104E60000846CE70FDF742FC94F8303023F0400342
:104E700084F8303016B0BDE8F087E379032B00F0FA
:104E8000C980204604F11C01226C4FF0FF33FEF76D
:104E9000EFF80028EED1A36A676A2668079027F02A
:104EA000FF021946159302A8236A8DF80F70069227
:104EB00002960493FDF7BCFB0028DBD102A8FEF7A5
:104EC00091FB03460028D5D1019A5069017941F040
:104ED00020010171E179506941F0010180F8211050
:104EE000A06851694FEA102E070C060E81F835E0D4
:104EF00081F8340081F8367081F83760D4F810807A
:104F0000666951694FEA182C4CEA066C300A4FEA80
:104F10001C2E4EEA006E4FEA1E27300C47EA00674F
:104F2000380A360E40EA06604FEA102A4FEA104966
:104F3000060E81F839C081F83AE081F83B7081F8BB
:104F40003C0081F83DA081F83E9081F8388081F8DE
:104F50003F60D4F81080666951694FEA182C4CEA1A
:104F6000066C300A4FEA1C2E4EEA006E4FEA1E27EE
:104F7000300C47EA0067380A360E40EA0660060E33
:104F80004FEA102A4FEA104981F82B7081F82C0063
:104F900081F8288081F829C081F82AE081F82DA0C5
:104FA00081F82E9081F82F605169280E2F0A2E0C5F
:104FB000C8730D734F738E7351694B75526902A894
:104FC000137453749374D374FEF7A0FB00287FF41A
:104FD00051AF0198FDF78AFB94F8303023F040037D
:104FE00084F8303046E7019B626C587804F1540134
:104FF000012302F03FF830B994F8303003F07F031A
:1050000084F83030F6E6012034E7120C110A1A75E4
:10501000597509E72046FEF751F800287FF42AAFBA
:105020002FE700BF70B582B00446FFF7CFFE08B18E
:1050300002B070BD204601A9FDF744F90028F7D160
:10504000E36A013B012B02D9022002B070BD094D79
:105050001B01EA180832918821F4807636B10139B3
:1050600089B2918019B100232360E1E7908000228A
:10507000EA50F8E73C0D00202DE9F04F85B003A978
:1050800014461D468246FDF71DF9002840F0818038
:105090009AF8310000287CD1DDF80CC09CF8003073
:1050A000042B79D0DAF85060002E00F08B806A1C57
:1050B00008BFB4F1FF3F00F0CD80DAE90423AB4232
:1050C00008BFA2423CBF14461D4654EA0503CAE984
:1050D0000E4500F0958014F1FF38DAF8007045F1C4
:1050E000FF39BA8900234046494610F0BDFF00232E
:1050F0007A8910F0B9FF7368043633B9BBE0C01A7F
:1051000056F8083F002B00F0B6808342F7D9736849
:1051100003449A1EDDF80CB0CAF84030DBF82030AA
:10512000023B934240F29080BBF80A70DBF83430C7
:1051300007FB0236002E00F08780BBF80C2000230E
:1051400020462946CDE9002310F08EFF134357D0A7
:10515000DDE900234046494610F086FF07F1FF3C99
:105160000CEA0000DAF844203418A24248D09AF938
:105170003030002B0AF15405C0F261819BF8010028
:1051800029462246012301F067FF002876D1CAF89C
:10519000444005B0BDE8F08F50460AF11C01DAF832
:1051A00040204FF0FF33FDF763FF0028F1D1DAF81C
:1051B0005060002E7FF47BAFDDF80CC09CF800300F
:1051C000042B08D00023AB424FF0FF3208BFA242AD
:1051D0003CBF14461D46DAE90423AB4208BFA24295
:1051E00005D29AF8301089075CBF14461D4600238B
:1051F0000022DAE90E89CAE90E2354EA050341D1F7
:10520000002005B0BDE8F08F0237B94505D343460D
:1052100043F8086BC8F804509846039B1B6A834206
:1052200040F2598105462C46002603E0431C25D058
:105230008442E9D121465046FDF722F9012804F1C4
:10524000010406F10106F1D802208AF8310005B008
:10525000BDE8F08FDAF80850D6F8009006F104089F
:105260000227002DDFD14F45376000F286800020F5
:10527000C8F800008DE76FF001024BE701208AF8C3
:10528000310086E7BCF80C30BCF80A6006FB03F678
:1052900058EA090373D018F1FF3849F1FF3914F1C6
:1052A000FF3045F1FF313246002310F0DDFE32467B
:1052B000CDE9000100234046494610F0D5FEDDE966
:1052C00000238B4208BF824259D3731E28EA030889
:1052D000CAE90E89B4EB0804DAF840B065EB0905B9
:1052E000BBF1000F57D00027AF4208BFA64228BF2E
:1052F000DDF80CC080F0B580A41B65EB070529E044
:10530000DAE904234B4508BF424505D2CAE90489BE
:105310004EF0400E8AF830E0FDF7BEFF83460028CD
:1053200000F0D380BBF1FF3FA8D0BBF1010F8BD9B8
:10533000DDF80CC0DCF820309B4585D2AF4208BFB9
:10534000A642CAF840B080F08C80DAE90E89A41B2E
:1053500065EB07059AF830E018EB060849EB0709FA
:105360001EF0020F50465946CAE90E89C8D1594667
:105370005046FDF785F88346D4E7112009E7DAF8AF
:1053800008B0BBF1000F39D04FF000084FF0000912
:10539000CAF840B0A4E7DDF80CC05E46DAE90423A1
:1053A0004B4508BF424507D29AF83030CAE9048914
:1053B00043F040038AF8303040464946BCF80C20A0
:1053C0000023644610F050FE13433FF419AFDAF89F
:1053D000442096423FF414AF9AF93030002B0AF182
:1053E00054051CDB607829463246012301F034FE67
:1053F00000287FF443AFCAF84460CAE659465046D5
:10540000FDF74AFF012883463FF41EAFB0F1FF3F8E
:105410003FF434AFCAF80800DAE90E89B8E76078DB
:105420002946012301F026FE00287FF427AF9AF8D1
:105430003030039C03F07F038AF83030D2E79BF8CA
:1054400001002946012301F015FE00287FF416AF64
:105450009AF83030DDF80CB003F07F038AF8303072
:105460008CE6DAE90E89BCF80C60CDF800C018EBC8
:10547000040849EB05090027CAE90E8932463B4674
:105480002046294610F0F0FD1343DDF800C025D07A
:10549000DCF82030ABF1020B023B9B45BFF4D4AEED
:1054A000BCF80A20DCF8343002FB0B3BBBF1000FE8
:1054B0003FF4CAAE3246204629463B4610F0D4FDA2
:1054C000DDF800C00BEB000668E70646DAE90E8956
:1054D000DDF80CC062E7DAF85060C4E600265DE74C
:1054E00070B584B0019150B1044603A901A800220F
:1054F000FDF7CAF930B10023236004B070BD092064
:1055000004B070BD039B236020460199FEF738FB71
:10551000F8B994F94B30002B21DBA379DB061CD5BD
:10552000039D2A78042A1CD0E16BC87E8B7E032A57
:1055300043EA00233BD0A360EB88A38020460021F0
:10554000FDF776F828B9A368002B37D1E362002075
:10555000D3E7042808BF0520CDE70520CBE7039D4E
:10556000EAE72269E3796E69A068E16C206222F0C3
:10557000FF0213436362A16296F8370096F8361073
:1055800096F8352096F8343041EA002142EA0122AB
:1055900043EA0223A36006F13800FCF78FFDC4E95B
:1055A000040196F8213003F00203E371C4E7487D5B
:1055B0000A7D42EA002243EA0243BCE70146204654
:1055C000FCF7F0FDE0620028C1D1122093E700BF94
:1055D00070B582B001A90446FCF774FE28B9E36AED
:1055E0008BB1013B012B02D9022002B070BD0A4DE4
:1055F0001B01EA180832918821F480763EB1013906
:1056000089B2918021B10023236002B070BD9080E7
:105610000022EA50F7E700BF3C0D002070B582B0D1
:105620000D4601A90446FCF74DFE30B920469DB158
:10563000FEF7E0F810F0FB0601D002B070BD29467D
:105640002046FDF75FFD20463146FDF727FF042881
:1056500008BF002002B070BD2946FCF7E9FFECE767
:1056600030B597B016AB0D4643F8540D02A9184655
:105670000022FDF709F9044610B1204617B030BDED
:1056800002A80199FEF77CFA04460028F5D19DF99D
:105690005330002B08DB002DEFD002A82946FDF780
:1056A00031FD204617B030BD0624204617B030BD6E
:1056B0002DE9F04391B010AB0E4643F83C0D144673
:1056C000184603A90022FDF7DFF8054690BB0398B2
:1056D0002060D0F82080C369A8F10204A3422DD92C
:1056E0000378012B77D0042B2DD0D0F82CE02B465B
:1056F0002C462F46002C57D00278022A62D093F80D
:1057000003909A7893F801C0197842EA09224CEA8A
:10571000022241EA022222F0704202B90137043328
:10572000043CB8F10108E5D137600379C76143F063
:1057300001030371284611B0BDE8F08328463360A9
:1057400011B0BDE8F083A846D0F834E02F46B8F198
:10575000000F20D000EB080393F83C30002CE3D07E
:10576000A4F1080201E0002CDED013F0010F04F1D7
:10577000FF3408BF013794424FEA5303F3D18389C2
:1057800008F10108B8FBF3F203FB1288002CCBD020
:10579000B8F1000FDED171460EF10109FCF706FEEB
:1057A00098BB0398CE46D5E771460EF10109FCF788
:1057B000FDFD50BB039802788489022ACE4600F191
:1057C0003C039CD159781A7852EA012208BF01376C
:1057D0000233023CA5E70DF14008022448F8300DE1
:1057E0002F4606E0012B13D003B90137036A9C4210
:1057F0009AD221464046FCF743FE03465A1C04F168
:1058000001040398EED101258EE7054603988BE746
:10581000022589E7F0B583B001A90546FCF752FDE2
:1058200038B995F8314034B995F83030990705D436
:10583000072003B0F0BD204603B0F0BDD5E90E014E
:10584000D5E90423994208BF9042F4D250EA0103FB
:10585000284618D0296CFCF713FE421C33D00128CF
:1058600025D0019B1B6A98422FD3D5E90E0195F8EC
:105870003030C5E9040143F0400385F830301B06A1
:1058800029D40020D5E7A9682246FDF76DFBAC605E
:1058900095F83030D5E90E6743F0400385F8303095
:1058A000C5E904670028EAD085F83100C1E7022085
:1058B00095F83030D5E90E6743F0400385F8303075
:1058C000C5E90467F0E70120F2E701462A6C2846A3
:1058D000FDF74AFBDCE7019B6A6C587805F154013F
:1058E000012301F0C7FB30B995F8303003F07F0396
:1058F00085F83030C5E70120D6E700BFF0B5B9B074
:1059000038AB03A943F8DC0D02221846FCF7BCFFB4
:10591000039B109308B139B0F0BD10A80199FEF7B0
:105920002FF90028F7D110A80221FCF701FC00286C
:10593000F1D19DF98B30002B2FDB9DF84650EA0703
:1059400001D50720E7E7039E04963278042A2FD07A
:105950001F9BDC7E997E032A41EA042445D0EB0696
:1059600011D5249626943378042B18D024A800212E
:10597000FCF75EFE0028CED124A8FDF73BFF0028EF
:10598000DFD00428C7D110A8FDF7FEFE0028C2D141
:1059900094BB0398FCF7AAFEBDE70620BBE7DDE950
:1059A0000823CDE928239DF817308DF89730DDE7DF
:1059B000776997F8371097F8363097F8352097F8C9
:1059C000344043EA012342EA032344EA032407F173
:1059D00038000694FCF772FB97F8213003F00203BD
:1059E000CDE908018DF81730B9E75A7D1B7D43EAF0
:1059F000022344EA0344B2E70246214604A8FDF725
:105A0000B3FA002887D1C4E72DE9F04F99B018AB5D
:105A100003A943F85C0D02221846FCF735FF039BEF
:105A20000493044618B1204619B0BDE8F08F05462E
:105A3000019904A8FEF7A4F80446C8B10428F2D1DD
:105A4000294604A8FDF728FC039A918953890995F2
:105A500003FB01F30893064678B101280FD1022415
:105A6000FBF74EFF04A831460022FDF77DFADAE786
:105A70000824204619B0BDE8F08F0724F0E7431C46
:105A800008BF0124ECD0D378002B40F0A880FBF7AE
:105A900037FF8046039C236AB21E023B9A423EBFF8
:105AA000636BB4F80AB00BFB023BA28904F13C0A19
:105AB00028BF4FF0000B52445346002103F8011B4E
:105AC0009342FBD103980378042B3ED004F14701A5
:105AD0005346202203F8012B8B42FBD11027C6F33B
:105AE00007234FF02E0E4FEA182528FA07F04FEA49
